:100000000C9463000C948B000C948B000C948B006C
:100010000C948B000C948B000C948B000C948B0034
:100020000C948B000C948B000C948B000C948B0024
:100030000C948B000C948B000C948B000C948B0014
:100040000C9409070C948B000C94D7060C94B10601
:100050000C948B000C948B000C948B000C948B00F4
:100060000C948B000C948B000000000024002700EF
:100070002A0000000000250028002B0000000000DE
:1000800023002600290004040404040404040202DA
:100090000202020203030303030301020408102007
:1000A0004080010204081020010204081020000012
:1000B0000008000201000003040700000000000027
:1000C00000005307690811241FBECFEFD8E0DEBF40
:1000D000CDBF11E0A0E0B1E0E6E4FAE102C0059096
:1000E0000D92A034B107D9F722E0A0E4B1E001C03D
:1000F0001D92A830B207E1F710E0C2E6D0E004C0DC
:100100002197FE010E949108C136D107C9F70E94CC
:1001100098070C94160D0C940000E0915301F09197
:1001200054010190F081E02D682F83E591E009945E
:10013000CF92DF92EF92FF920F931F93CF93DF93B3
:100140006C017A018B01C0E0D0E0CE15DF0589F0AB
:10015000D8016D918D01D601ED91FC910190F08156
:10016000E02DC6010995892B11F47E0102C021966C
:10017000ECCFC701DF91CF911F910F91FF90EF90CE
:10018000DF90CF900895FC01918D828D981761F0DA
:10019000828DDF01A80FB11D5D968C91928D9F5FBE
:1001A0009F73928F90E008958FEF9FEF0895FC0169
:1001B000918D828D981731F0828DE80FF11D858D1C
:1001C00090E008958FEF9FEF0895FC01918D228DAF
:1001D000892F90E0805C9F4F821B91098F73992734
:1001E000089583E591E00E94E50021E0892B09F460
:1001F00020E0822F0895FC01848DDF01A80FB11D3E
:10020000A35ABF4F2C91848D90E001968F7399274C
:10021000848FA689B7892C93A089B1898C91806439
:100220008C93938D848D981306C00288F389E02DFA
:1002300080818F7D80830895EF92FF920F931F93AB
:10024000CF93DF93EC0181E0888F9B8D8C8D981389
:1002500005C0E889F989808185FD24C0F62E0B8DC3
:1002600010E00F5F1F4F0F731127E02E8C8DE812E7
:100270000CC00FB607FCFACFE889F989808185FFA9
:10028000F5CFCE010E94FB00F1CF8B8DFE01E80F70
:10029000F11DE35AFF4FF0820B8FEA89FB898081C1
:1002A000806207C0EE89FF896083E889F9898081CF
:1002B0008064808381E090E0DF91CF911F910F9166
:1002C000FF90EF900895CF93DF93EC01888D882302
:1002D000C9F0EA89FB89808185FD05C0A889B989B3
:1002E0008C9186FD0FC00FB607FCF5CF808185FF8E
:1002F000F2CFA889B9898C9185FFEDCFCE010E94FC
:10030000FB00E7CFDF91CF910895833081F028F48F
:10031000813099F08230A1F008958730A9F08830BB
:10032000B9F08430D1F4809180008F7D03C080913A
:1003300080008F7780938000089584B58F7702C006
:1003400084B58F7D84BD08958091B0008F7703C000
:100350008091B0008F7D8093B0000895CF93DF939C
:10036000282F30E0F901E255FF4F8491F901E6565C
:10037000FF4FD491F901EA57FF4FC491CC2391F07C
:1003800081110E948501EC2FF0E0EE0FFF1FE45871
:10039000FF4FA591B491EC91ED2381E090E021F421
:1003A00080E002C080E090E0DF91CF9108951F933C
:1003B000CF93DF93282F30E0F901E255FF4F84916E
:1003C000F901E656FF4FD491F901EA57FF4FC49166
:1003D000CC23C9F0162F81110E948501EC2FF0E08B
:1003E000EE0FFF1FEE58FF4FA591B4918FB7F89411
:1003F000111105C09C91ED2FE095E92302C0EC910D
:10040000ED2BEC938FBFDF91CF911F910895CF9388
:10041000DF9390E0FC01E656FF4F2491FC01EA5780
:10042000FF4F8491882361F190E0880F991FFC01B0
:10043000E859FF4FC591D491FC01EE58FF4FA591AB
:10044000B491611109C09FB7F894888120958223E7
:100450008883EC912E230BC0623061F49FB7F8942F
:100460003881822F809583238883EC912E2B2C93C7
:100470009FBF06C08FB7F894E8812E2B28838FBFCB
:10048000DF91CF9108953FB7F89480914201909108
:100490004301A0914401B091450126B5A89B05C038
:1004A0002F3F19F00196A11DB11D3FBFBA2FA92FF3
:1004B000982F8827820F911DA11DB11DBC01CD0170
:1004C00042E0660F771F881F991F4A95D1F708955C
:1004D0008F929F92AF92BF92CF92DF92EF92FF9254
:1004E0006B017C010E9443024B015C01C114D104E9
:1004F000E104F104F1F00E944302DC01CB01881910
:100500009909AA09BB09883E9340A105B10570F37A
:1005100021E0C21AD108E108F10888EE880E83E0D4
:10052000981EA11CB11CC114D104E104F10419F7F7
:10053000DDCFFF90EF90DF90CF90BF90AF909F9076
:100540008F900895EF92FF921F93CF93DF9361E016
:100550008091FC010E94D7016AEF70E080E090E09A
:100560000E9468022FB7F89480914F01909150013A
:10057000A0915101B09152012FBF4091FF015091C4
:100580000002609101027091020284179507A6078C
:10059000B70740F41092FF0110920002109201027E
:1005A0001092020220910302211113C04091FF0119
:1005B000509100026091010270910202841B950B20
:1005C000A60BB70B803D9740A105B10510F481E063
:1005D00087C0109203022FB7F89480914F01909139
:1005E0005001A0915101B09152012FBF8093FF01A2
:1005F00090930002A0930102B09302021092FA01BC
:100600001092F9011092F8011092F7011092F60180
:1006100061E08091FC010E94070260E08091FC0192
:100620000E94D70164E170E080E090E00E946802DF
:10063000F89461E08091FC010E94D7018BE990E081
:100640000197F1F760E08091FC010E94070210E041
:10065000C0E081E0D0E0E82EF12C8091FC010E9406
:10066000AE018E159F0519F4DF5FDF3FB1F7809172
:10067000FC010E94AE01DF3FC1F0C43098F0C0FD24
:1006800011C0E12FE695E695E695F0E0EA50FE4FC1
:100690009081990F90832091FE012D1710F49160A5
:1006A00090831F5FCF5FC535A9F678941832B8F0F4
:1006B0002091FA0130E04091F6018091F70190E03D
:1006C000840F911D4091F801840F911D4091F90113
:1006D000840F911D99272817390709F478CF80E0F6
:1006E000DF91CF911F91FF90EF900895009769F0EF
:1006F000FC0101900020E9F73197AF01481B590B2D
:10070000BC0183E591E00C94980080E090E00895AE
:100710008F929F92AF92BF920F931F93CF93DF93CD
:10072000CDB7DEB7A1970FB6F894DEBF0FBECDBF31
:1007300019A2423008F44AE08E010F5D1F4F842E4B
:10074000912CA12CB12CA50194010E946F08E62FD9
:10075000B901CA0101501109EA3014F4E05D01C089
:10076000E95CD801EC93232B242B252B61F7C801DE
:100770000E947603A1960FB6F894DEBF0FBECDBFE0
:10078000DF91CF911F910F91BF90AF909F908F906D
:100790000895CF93DF930E947603EC0186E191E008
:1007A0000E9476038C0F9D1FDF91CF9108950C94CA
:1007B0007603CF92DF92EF92FF92CF930E94A20234
:1007C0008823D1F18091FD018B3029F0A8F185516A
:1007D000823048F031C06091F80170E080E090E034
:1007E0000E94C00B31C0C091F8016C2F6F7770E090
:1007F00080E090E00E94C20B20E030E040E853E44B
:100800000E94210C6B017C018091F901682F70E03E
:1008100080E090E00E94C20B9B01AC01C701B601D1
:100820000E94980820E030E040E251E40E94040970
:10083000C7FF0AC0905808C089E191E00E94D70321
:1008400060E070E080EC9FE7CF91FF90EF90DF9049
:10085000CF900895CF92DF92EF92FF920E94A20272
:100860008823A1F18091FD018B3041F178F1855110
:10087000823060F56091F60170E080E090E00E94C7
:10088000C00B20E030E040E853E40E94210C6B01F3
:100890007C018091F701682F70E080E090E00E9479
:1008A000C20B9B01AC01C701B6010E94980820E071
:1008B00030E040E251E40E94040910C06091F6016A
:1008C00070E080E090E00E94C00B08C089E191E0F8
:1008D0000E94D70360E070E080EC9FE7FF90EF900C
:1008E000DF90CF9008954F925F926F927F928F9298
:1008F0009F92AF92BF92CF92DF92EF92FF926B01E5
:100900007C01B42E9B01AC010E94AA09882319F036
:1009100083E291E027C026013701E89477F82FEFB2
:100920003FEF4FE75FE7C301B2010E94AA098111BF
:100930000DC02FEF3FEF4FE75FE7C301B2010E9409
:10094000BB0B18161CF487E291E00CC02FEF3FEFB1
:100950004FE75FE4C701B6010E94A509181684F4A9
:100960008BE291E0FF90EF90DF90CF90BF90AF903F
:100970009F908F907F906F905F904F900C94760334
:100980002FEF3FEF4FE75FECC701B6010E94BB0BB3
:1009900087FDE6CF20E030E0A901C701B6010E9443
:1009A000BB0B87FF09C08DE20E948D004C01F7FA56
:1009B000F094F7F8F09402C0812C912CA12C60E007
:1009C00070E080E09FE3AB1441F020E030E040E2D3
:1009D00051E40E940409A394F6CF9B01AC01C70126
:1009E000B6010E9498082B013C010E9476096B0118
:1009F0007C010E94C00B9B01AC01C301B2010E94AB
:100A000097082B013C014AE0C701B6010E94880308
:100A10007C01E80CF91CBB2029F08EE20E948D00BD
:100A2000E80EF91EDB2CDD2021F120E030E040E271
:100A300051E4C301B2010E94210C2B013C010E9430
:100A400076094B01A12CB12C4AE0C501B4010E94EA
:100A50008803E80EF91EC501B4010E94C00B9B017A
:100A6000AC01C301B2010E9497082B013C01DA944A
:100A7000DACFC701FF90EF90DF90CF90BF90AF909B
:100A80009F908F907F906F905F904F900895CF923E
:100A9000DF92EF92FF92CF93DF936C01990FEE08F4
:100AA000FF08F7FE17C08DE20E948D00EC0166275B
:100AB0007727CB016C197D098E099F094AE00E94B6
:100AC00088038C0F9D1FDF91CF91FF90EF90DF90F7
:100AD000CF9008954AE0C701B601DF91CF91FF9012
:100AE000EF90DF90CF900C948803CF92DF92EF923B
:100AF000FF928091F4019091F501029730F0E0911E
:100B0000F001F091F101309729F410924001E0E4F6
:100B1000F1E001C0319680818437F1F50E942A040A
:100B200060934B0170934C0180934D0190934E0163
:100B30000E94D9036B017C016093470170934801C7
:100B40008093490190934A0161E082E00E94D701BD
:100B500065E070E080E090E00E946802A7019601E5
:100B6000C701B6010E94AA0981110EC060914B0114
:100B700070914C0180914D0190914E019B01AC010F
:100B80000E94AA098823B1F081E090E00E94470505
:100B90008FE291E00E94C90364E170E080E090E0A0
:100BA0000E94680260E082E0FF90EF90DF90CF90BB
:100BB0000C94D70181E090E00E9447058EE391E01C
:100BC0000E94D703609147017091480180914901CB
:100BD00090914A0142E00E9473048EE391E00E94EA
:100BE000D70360914B0170914C0180914D01909120
:100BF0004E0142E00E9473048EE391E00E94D7030D
:100C00008CE391E00E94C9034AE066E070E080E076
:100C100090E00E94880386E191E00E947603BCCFB9
:100C20000E94A60B0F931F93CF93DF93EC01888153
:100C30009981009729F02A813B812617370788F48C
:100C40008B016F5F7F4F0E94DC0A009761F09983F0
:100C500088831B830A832C813D81232B11F4FC01A3
:100C6000108281E001C080E0DF91CF911F910F9150
:100C70000895EF92FF920F931F93CF93DF93EC01B0
:100C80007B018A01BA010E941206288139818111F3
:100C90000DC02115310519F0C9010E94440A1982BD
:100CA00018821D821C821B821A8206C01D830C833F
:100CB000B701C9010E94B40BCE01DF91CF911F9102
:100CC0000F91FF90EF900895EF92FF920F931F9373
:100CD000CF93DF9300D0CDB7DEB7EE24E39483E566
:100CE00091E00E94E500892B69F183E591E00E9483
:100CF000C300F82E89831A820091F4011091F50146
:100D00000F5F1F4FB80180EF91E00E941206882309
:100D100099F02091F0013091F1018091F4019091CE
:100D2000F501BE016F5F7F4F820F931F0E94B40BCE
:100D30001093F5010093F4018DE0F812D0CFE0920A
:100D40004601CDCF0F900F90DF91CF911F910F9162
:100D5000FF90EF9008950E94F10081110C946406B9
:100D600008951F920F920FB60F9211242F933F9365
:100D70004F935F936F937F938F939F93AF93BF93A3
:100D8000EF93FF9383E591E00E94FB00FF91EF91C9
:100D9000BF91AF919F918F917F916F915F914F9193
:100DA0003F912F910F900FBE0F901F9018951F929B
:100DB0000F920FB60F9211242F938F939F93EF935F
:100DC000FF93E0916301F09164018081E0916901FA
:100DD000F0916A0182FD12C0908180916C018F5F59
:100DE0008F7320916D01821751F0E0916C01F0E05A
:100DF000ED5AFE4F958F80936C0101C08081FF9169
:100E0000EF919F918F912F910F900FBE0F901F9098
:100E100018951F920F920FB60F9211242F933F93A4
:100E20008F939F93AF93BF9380914F019091500107
:100E3000A0915101B09152013091410123E0230F63
:100E40002D3720F40196A11DB11D05C026E8230F02
:100E50000296A11DB11D2093410180934F019093F3
:100E60005001A0935101B0935201809142019091A1
:100E70004301A0914401B09145010196A11DB11D0E
:100E80008093420190934301A0934401B0934501A4
:100E9000BF91AF919F918F913F912F910F900FBE76
:100EA0000F901F901895E3E5F1E01382128288EE0F
:100EB00093E0A0E0B0E084839583A683B7838AE0C3
:100EC00091E09183808385EC90E09587848784EC22
:100ED00090E09787868780EC90E0918B808B81EC07
:100EE00090E0938B828B82EC90E0958B848B86ECE8
:100EF00090E0978B868B118E128E138E148EE6EFF8
:100F0000F1E088E086838BE0878386E0808781E05C
:100F10008587E0EFF1E01182108213821282158240
:100F2000148240E050E068E171E0CF010C94390692
:100F3000CF93DF9300D000D000D0CDB7DEB7789448
:100F400084B5826084BD84B5816084BD85B58260CE
:100F500085BD85B5816085BD80916E00816080937F
:100F60006E001092810080918100826080938100E8
:100F700080918100816080938100809180008160F8
:100F8000809380008091B10084608093B100809153
:100F9000B00081608093B00080917A00846080937B
:100FA0007A0080917A00826080937A0080917A0042
:100FB000816080937A0080917A00806880937A00C3
:100FC0001092C10061E082E00E94070261E082E0CD
:100FD0000E94D701E0916301F091640182E0808377
:100FE000E0915F01F09160011082E0916101F09168
:100FF00062018FEC808310926B01E0916701F091A8
:10100000680186E08083E0916501F091660180814E
:1010100080618083E0916501F09166018081886044
:101020008083E0916501F091660180818068808312
:10103000E0916501F091660180818F7D808360E0A1
:101040008091FC010E94070261E08091FC010E94F6
:10105000D7011092FF01109200021092010210922B
:1010600002026EE170E080E090E00E94680260E0C1
:1010700082E00E94D70180914601882339F11A82CB
:1010800019821C821B821E821D826091F001709168
:10109000F1016115710541F04091F4015091F501A4
:1010A000CE0101960E943906CE0101960E94750577
:1010B00089819A810E94440A40E050E068E171E031
:1010C00080EF91E00E943906109246010E94AB0623
:1010D000D2CF8091F0019091F1010C94440AA1E2E9
:1010E0001A2EAA1BBB1BFD010DC0AA1FBB1FEE1FA2
:1010F000FF1FA217B307E407F50720F0A21BB30BED
:10110000E40BF50B661F771F881F991F1A9469F768
:1011100060957095809590959B01AC01BD01CF01C4
:101120000895EE0FFF1F0590F491E02D099450589B
:10113000BB27AA270E94AF080C94A50C0E94970C0D
:1011400038F00E949E0C20F039F49F3F19F426F4E9
:101150000C94940C0EF4E095E7FB0C948E0CE92FA4
:101160000E94B60C58F3BA176207730784079507F5
:1011700020F079F4A6F50C94D80C0EF4E0950B2E23
:10118000BA2FA02D0B01B90190010C01CA01A001D9
:101190001124FF27591B99F0593F50F4503E68F134
:1011A0001A16F040A22F232F342F4427585FF3CF75
:1011B000469537952795A795F0405395C9F77EF446
:1011C0001F16BA0B620B730B840BBAF09150A1F08F
:1011D000FF0FBB1F661F771F881FC2F70EC0BA0F15
:1011E000621F731F841F48F4879577956795B7959D
:1011F000F7959E3F08F0B0CF9395880F08F0992798
:10120000EE0F9795879508950E9418090C94A50CE8
:101210000E949E0C58F00E94970C40F029F45F3F0A
:1012200029F00C948E0C51110C94D90C0C94940C44
:101230000E94B60C68F39923B1F3552391F3951BE3
:10124000550BBB27AA2762177307840738F09F5FE7
:101250005F4F220F331F441FAA1FA9F335D00E2E54
:101260003AF0E0E832D091505040E695001CCAF7C1
:101270002BD0FE2F29D0660F771F881FBB1F261784
:1012800037074807AB07B0E809F0BB0B802DBF015B
:10129000FF2793585F4F3AF09E3F510578F00C942A
:1012A0008E0C0C94D90C5F3FE4F3983ED4F38695F2
:1012B00077956795B795F7959F5FC9F7880F911D4B
:1012C0009695879597F90895E1E0660F771F881F37
:1012D000BB1F621773078407BA0720F0621B730BEA
:1012E000840BBA0BEE1F88F7E09508950E94BE0CA0
:1012F00088F09F5798F0B92F9927B751B0F0E1F0D7
:10130000660F771F881F991F1AF0BA95C9F714C086
:10131000B13091F00E94D80CB1E008950C94D80C33
:10132000672F782F8827B85F39F0B93FCCF38695BF
:1013300077956795B395D9F73EF49095809570951C
:1013400061957F4F8F4F9F4F08950E94FD0B08F4CA
:101350008FEF08950E94FD0B880B990B0895CF9392
:10136000DF938230910510F482E090E0E091060274
:10137000F091070220E030E0C0E0D0E0309711F1BA
:101380004081518148175907C0F04817590761F447
:1013900082819381209719F09B838A832BC090933D
:1013A00007028093060226C02115310519F0421765
:1013B000530718F49A01BE01DF01EF010280F381A7
:1013C000E02DDCCF2115310509F1281B390B243024
:1013D000310590F412968D919C91139761157105CA
:1013E00021F0FB019383828304C0909307028093D2
:1013F0000602FD01329644C0FD01E20FF31F819306
:101400009193225031092D933C933AC020910402CC
:1014100030910502232B41F4209102013091030108
:1014200030930502209304022091000130910101C4
:101430002115310541F42DB73EB74091040150917B
:101440000501241B350BE0910402F0910502E2171F
:10145000F307A0F42E1B3F0B2817390778F0AC01D7
:101460004E5F5F4F2417350748F04E0F5F1F5093B4
:101470000502409304028193919302C0E0E0F0E002
:10148000CF01DF91CF9108950F931F93CF93DF93F7
:10149000009709F48CC0FC013297138212820091EC
:1014A0000602109107020115110581F42081318196
:1014B000820F931F209104023091050228173907EB
:1014C00079F5F0930502E093040271C0D80140E081
:1014D00050E0AE17BF0750F412962D913C91139730
:1014E000AD012115310509F1D901F3CF9D01DA01D3
:1014F0003383228360817181860F971F8217930740
:1015000069F4EC0128813981260F371F2E5F3F4F88
:10151000318320838A819B8193838283452B29F4A5
:10152000F0930702E093060242C01396FC93EE93F9
:101530001297ED01499159919E01240F351FE21731
:10154000F30771F480819181840F951F02961196A3
:101550009C938E938281938113969C938E93129782
:10156000E0E0F0E0D80112968D919C9113970097DE
:1015700019F0F8018C01F6CF8D919C9198012E5FA6
:101580003F4F820F931F20910402309105022817CC
:10159000390769F4309729F4109207021092060275
:1015A00002C0138212821093050200930402DF919D
:1015B000CF911F910F910895A0E0B0E0E2EEFAE024
:1015C0000C94E30CEC01009721F4CB010E94AF09CD
:1015D000B8C0FC01E60FF71F9C0122503109E21749
:1015E000F30708F4ACC0D9010D911C9111970617AF
:1015F0001707B0F00530110508F49FC0C801049723
:101600008617970708F499C002501109061B170B9B
:10161000019311936D937C93CF010E94440A8DC076
:101620005B01A01AB10A4C01800E911EA091060226
:10163000B091070240E050E0E12CF12C109709F442
:101640004AC0A815B905D1F56D907C90119763013A
:1016500082E0C80ED11CCA14DB0480F1A3014A1930
:101660005B096A0182E0C80ED11C1296BC901297E9
:101670001396AC91B5E0CB16D10440F0B282A383AF
:1016800051834083D9016D937C930AC00E5F1F4F35
:10169000C301800F911FF90191838083EB2DFA2FF5
:1016A000E114F10431F0D7011396FC93EE931297F5
:1016B00044C0F0930702E09306023FC08D919C91D5
:1016C00011974817590708F4AC017D0112960D9047
:1016D000BC91A02DB3CF8091040290910502881592
:1016E0009905E1F446175707C8F4809100019091DD
:1016F0000101009741F48DB79EB7409104015091CC
:101700000501841B950BE817F907C8F4F09305024F
:10171000E0930402F901718360830FC0CB010E9442
:10172000AF097C01009759F0A801BE010E94AB0BE4
:10173000CE010E94440AC70104C0CE0102C080E06D
:1017400090E0CDB7DEB7EEE00C94FF0C81E090E0C6
:10175000F8940C94160DFB01DC0102C001900D926F
:1017600041505040D8F70895FB01DC0101900D92E3
:101770000020E1F708950E94FD0B08F481E0089530
:10178000E89409C097FB3EF490958095709561951B
:101790007F4F8F4F9F4F9923A9F0F92F96E9BB27D1
:1017A0009395F695879577956795B795F111F8CF4D
:1017B000FAF4BB0F11F460FF1BC06F5F7F4F8F4FB8
:1017C0009F4F16C0882311F096E911C0772321F0AE
:1017D0009EE8872F762F05C0662371F096E8862F46
:1017E00070E060E02AF09A95660F771F881FDAF79D
:1017F000880F9695879597F90895990F0008550FCA
:10180000AA0BE0E8FEEF16161706E807F907C0F086
:1018100012161306E407F50798F0621B730B840B8E
:10182000950B39F40A2661F0232B242B252B21F468
:1018300008950A2609F4A140A6958FEF811D811D08
:1018400008950E94340C0C94A50C0E94970C38F05B
:101850000E949E0C20F0952311F00C948E0C0C9499
:10186000940C11240C94D90C0E94B60C70F3959F23
:10187000C1F3950F50E0551F629FF001729FBB2787
:10188000F00DB11D639FAA27F00DB11DAA1F649F23
:101890006627B00DA11D661F829F2227B00DA11DD6
:1018A000621F739FB00DA11D621F839FA00D611D5C
:1018B000221F749F3327A00D611D231F849F600D7D
:1018C000211D822F762F6A2F11249F5750409AF0A6
:1018D000F1F088234AF0EE0FFF1FBB1F661F771F32
:1018E000881F91505040A9F79E3F510580F00C94FD
:1018F0008E0C0C94D90C5F3FE4F3983ED4F386959C
:1019000077956795B795F795E7959F5FC1F7FE2B9C
:10191000880F911D9695879597F9089597F99F6778
:1019200080E870E060E008959FEF80EC0895002467
:101930000A941616170618060906089500240A9434
:1019400012161306140605060895092E0394000CBA
:1019500011F4882352F0BB0F40F4BF2B11F460FF49
:1019600004C06F5F7F4F8F4F9F4F089557FD905872
:10197000440F551F59F05F3F71F04795880F97FB53
:10198000991F61F09F3F79F087950895121613060D
:101990001406551FF2CF4695F1DF08C0161617063C
:1019A0001806991FF1CF8695710561050894089571
:1019B000E894BB2766277727CB0197F908952F92E4
:1019C0003F924F925F926F927F928F929F92AF92CF
:1019D000BF92CF92DF92EF92FF920F931F93CF931C
:1019E000DF93CDB7DEB7CA1BDB0B0FB6F894DEBFB3
:1019F0000FBECDBF09942A88398848885F846E84D9
:101A00007D848C849B84AA84B984C884DF80EE8022
:101A1000FD800C811B81AA81B981CE0FD11D0FB62B
:101A2000F894DEBF0FBECDBFED01089510E0C2E611
:101A3000D0E004C0FE010E9491082196C336D10770
:061A4000C9F7F894FFCF86
:101A4600000008028000000000001C019800E5006C
:101A5600C300D70063010D0A005265616420666108
:101A6600696C006E616E00696E66006F7666003B9B
:101A760030302E30303B30302E30303B23003B00B0
:107E0000112484B714BE81FFF0D085E080938100F7
:107E100082E08093C00088E18093C10086E0809377
:107E2000C20080E18093C4008EE0C9D0259A86E02C
:107E300020E33CEF91E0309385002093840096BBD3
:107E4000B09BFECF1D9AA8958150A9F7CC24DD24C4
:107E500088248394B5E0AB2EA1E19A2EF3E0BF2EE7
:107E6000A2D0813461F49FD0082FAFD0023811F036
:107E7000013811F484E001C083E08DD089C08234E0
:107E800011F484E103C0853419F485E0A6D080C0E4
:107E9000853579F488D0E82EFF2485D0082F10E0AE
:107EA000102F00270E291F29000F111F8ED06801E7
:107EB0006FC0863521F484E090D080E0DECF843638
:107EC00009F040C070D06FD0082F6DD080E0C81688
:107ED00080E7D80618F4F601B7BEE895C0E0D1E017
:107EE00062D089930C17E1F7F0E0CF16F0E7DF06D8
:107EF00018F0F601B7BEE89568D007B600FCFDCFD4
:107F0000A601A0E0B1E02C9130E011968C91119780
:107F100090E0982F8827822B932B1296FA010C0160
:107F200087BEE89511244E5F5F4FF1E0A038BF0790
:107F300051F7F601A7BEE89507B600FCFDCF97BE46
:107F4000E89526C08437B1F42ED02DD0F82E2BD052
:107F50003CD0F601EF2C8F010F5F1F4F84911BD097
:107F6000EA94F801C1F70894C11CD11CFA94CF0C13
:107F7000D11C0EC0853739F428D08EE10CD085E9AC
:107F80000AD08FE07ACF813511F488E018D01DD067
:107F900080E101D065CF982F8091C00085FFFCCF94
:107FA0009093C60008958091C00087FFFCCF809118
:107FB000C00084FD01C0A8958091C6000895E0E648
:107FC000F0E098E1908380830895EDDF803219F02E
:107FD00088E0F5DFFFCF84E1DECF1F93182FE3DFCA
:107FE0001150E9F7F2DF1F91089580E0E8DFEE27F6
:047FF000FF270994CA
:027FFE00040479
:0400000300007E007B
:00000001FF
